{
  "contractName": "MyContract",
  "abi": [
    {
      "inputs": [],
      "name": "getData",
      "outputs": [
        {
          "internalType": "uint256",
          "name": "",
          "type": "uint256"
        }
      ],
      "stateMutability": "view",
      "type": "function"
    },
    {
      "inputs": [
        {
          "internalType": "uint256",
          "name": "_data",
          "type": "uint256"
        }
      ],
      "name": "setData",
      "outputs": [],
      "stateMutability": "nonpayable",
      "type": "function"
    }
  ],
  "bytecode": "0x608060405234801561001057600080fd5b50610150806100206000396000f3fe608060405234801561001057600080fd5b50600436106100365760003560e01c80633bc5de301461003b5780635b4b73a914610059575b600080fd5b610043610075565b60405161005091906100a1565b60405180910390f35b610073600480360381019061006e91906100ed565b61007e565b005b60008054905090565b8060008190555050565b6000819050919050565b61009b81610088565b82525050565b60006020820190506100b66000830184610092565b92915050565b600080fd5b6100ca81610088565b81146100d557600080fd5b50565b6000813590506100e7816100c1565b92915050565b600060208284031215610103576101026100bc565b5b6000610111848285016100d8565b9150509291505056fea26469706673582212207104b6cd509739717fb154a36c4d58bffb676e8fc304aa0e3cd26aaee69fc9dc64736f6c634300080d0033",
  "immutableReferences": {},
  "source": "// SPDX-License-Identifier: MIT\r\n\r\npragma solidity ^0.8.0;\r\n\r\ncontract MyContract{\r\n    // event MyEvent(\r\n    //     uint indexed id,\r\n    //     uint indexed date,\r\n    //     string indexed value\r\n    // );\r\n\r\n    // uint nextId;\r\n\r\n    // function emitEvent(string calldata value) external {\r\n    //     emit MyEvent(nextId,block.timestamp, value);\r\n\r\n    //     nextId++;\r\n    // }\r\n\r\n\r\n\r\n// =-=-=-=-=-=-=-=-=-=-=\r\n    // string public functionCalled;\r\n\r\n    // function sendEther() external payable{\r\n    //     functionCalled = 'sendEther';\r\n    // }\r\n\r\n    // function() external payable{\r\n    //     functionCalled = 'fallback';\r\n    // }\r\n\r\n\r\n// =-=-=-=-=-=-=-=-=-=-=\r\n\r\n    uint data;\r\n    \r\n    function getData() external view returns(uint){\r\n        return data;\r\n    }\r\n\r\n    function setData(uint _data) external {\r\n        data = _data;\r\n    }\r\n\r\n    // function setDataPrivate(uint _data) private {\r\n    //     data = _data + 10;\r\n    // }\r\n\r\n}",
  "sourcePath": "D:\\Graphie\\nft-web3\\src\\contracts\\MyContract.sol",
  "compiler": {
    "name": "solc",
    "version": "0.8.13+commit.abaa5c0e.Emscripten.clang"
  },
  "schemaVersion": "3.4.6",
  "updatedAt": "2022-03-24T14:57:06.883Z",
  "devdoc": {
    "kind": "dev",
    "methods": {},
    "version": 1
  },
  "userdoc": {
    "kind": "user",
    "methods": {},
    "version": 1
  }
}